:020000040000FA
:10000000000002284130AE000130AF008030000017
:100010000000EA200000000083120000C0002F084A
:10002000BF004330C1000130C200831200003F080E
:10003000C3004008C400FF30BF07031CC0034408CE
:10004000430403199A2804304107C300C401C40DB6
:100050004208C4074308AE004408AF0080300000E7
:100060000000EA200000000083120000C6002F08F4
:10007000C5004108AE004208AF008030000000001B
:10008000EA200000000083120000C800C4002F080E
:10009000C300C70002304107C300C401C40D4208B9
:1000A000C4074308AE004408AF00803000000000E1
:1000B000EA200000000083120000C400CA002F08DC
:1000C000C900C300831200004508C9004608CA00E1
:1000D000FF30C507031CC6034A08490403199328C7
:1000E0004708AE004808AF00803000000000D7206D
:1000F0000000000083120000C900430883120313AC
:100100008400831383120000441883174908831264
:100110000313800083120000C70A0319C80AC30A28
:100120000319C40A6228063083120000C1070318AD
:10013000C20A15280000000066290800B1002F0837
:10014000B000B201B3013308803E803E031DAA28EF
:10015000083032020318D5283108B5003008B40041
:100160003208B21BBF28003C0319C5280310B51B79
:100170000314B50CB40C013E031CB628C5280310AB
:10018000B40DB50D013E031CC0283408B600360C72
:100190000318CC2883120510031CD02883120514E1
:1001A0004F21B20A0319B30AA32870210800003AAC
:1001B0000319DE28803A0319E52800342E0884004C
:1001C00083132F188317000808002F088A002E08B1
:1001D00082000800003A0319F228803A0319FC282B
:1001E000AF0100342E08840083132F1883170008F2
:1001F000AF00840A0008080000000000E520AD0000
:10020000AE0FAF03AF0A00000000E520AC002D08E0
:10021000AF002C080800B8002F08B700B901BA01D8
:1002200038083A02031D1629370839020318312904
:10023000FB30BB000430BC00FF303B07BD00FF308B
:10024000BE003C0803183C0FBE073D08BB003E083B
:10025000BC003E083D04031D1C29B90A0319BA0A53
:100260001029080083129F0183169F010730831213
:100270009900831699012030850020308312850073
:100280000800023400345C3401344B3400340A3446
:1002900000347D3401345534003401340034831289
:1002A00005156430AF0000300B2183120511643056
:1002B000AF0000300B2108003F3406345B344F346C
:1002C00066346D347D3407347F3467343221E8304E
:1002D000AF0003300B213F30AF0000309E200800FC
:1002E000831285146430AF0000300B218312851017
:0C02F00008000030AF00003008000034AF
:00000001FF
