:020000040000FA
:10000000000002286430AE000130AF0080300000F4
:100010000000EA200000000083120000C2002F0848
:10002000C1006630C3000130C400831200004108E3
:10003000C5004208C600FF30C107031CC2034608C2
:10004000450403199A2804304307C500C601C60DAC
:100050004408C6074508AE004608AF0080300000DF
:100060000000EA200000000083120000C8002F08F2
:10007000C7004308AE004408AF0080300000000015
:10008000EA200000000083120000CA00C6002F080A
:10009000C500C90002304307C500C601C60D4408AB
:1000A000C6074508AE004608AF00803000000000DB
:1000B000EA200000000083120000C600CC002F08D8
:1000C000CB00C500831200004708CB004808CC00D5
:1000D000FF30C707031CC8034C084B0403199328BF
:1000E0004908AE004A08AF00803000000000D72069
:1000F0000000000083120000CB00450883120313A8
:100100008400831383120000461883174B08831260
:100110000313800083120000C90A0319CA0AC50A22
:100120000319C60A6228063083120000C3070318A9
:10013000C40A15280000000032290800B1002F0869
:10014000B000B201B3013308803E803E031DAA28EF
:10015000083032020318D5283108B5003008B40041
:100160003208B21BBF28003C0319C5280310B51B79
:100170000314B50CB40C013E031CB628C5280310AB
:10018000B40DB50D013E031CC0283408B600360C72
:100190000318CC2883120510031CD02883120514E1
:1001A0007221B20A0319B30AA32889210800003A70
:1001B0000319DE28803A0319E52800342E0884004C
:1001C00083132F188317000808002F088A002E08B1
:1001D00082000800003A0319F228803A0319FC282B
:1001E000AF0100342E08840083132F1883170008F2
:1001F000AF00840A0008080000000000E520AD0000
:10020000AE0FAF03AF0A00000000E520AC002D08E0
:10021000AF002C080800BA002F08B900BB01BC01D0
:100220003A083C02031D162939083B0203183129FC
:10023000FB30BD000430BE00FF303D07BF00FF3083
:10024000C0003E0803183E0FC0073F08BD0040082D
:10025000BE0040083F04031D1C29BB0A0319BC0A49
:100260001029080055216430AF0000300B21B70180
:10027000B8013808803E803E031D40290A3037020D
:10028000031837298312851A49294F30AF000030EF
:100290009E208312851A50294F30AF0000309E20D7
:1002A000B70A0319B80A3929080083129F01831677
:1002B0009F01073083129900831699012030850031
:1002C0002030831285000800023400347F3401346A
:1002D0004D3400340A340034963401345734003439
:1002E00001340034831205156430AF0000300B2157
:1002F000831205116430AF0000300B2108003F3439
:1003000006345B344F3466346D347D3407347F34C7
:100310006734831285146430AF0000300B218312E0
:0E032000851008000030AF00003008000034E7
:00000001FF
