:020000040000FA
:1000000000000228ED30AE000230AF00803000006A
:10001000000061220000000083120000C5002F08CC
:10002000C400EF30C6000230C7008312000044084D
:10003000C8004508C900FF30C407031CC5034908B0
:10004000480403199A2804304607C800C901C90D9D
:100050004708C9074808AE004908AF0080300000D3
:10006000000061220000000083120000CB002F0876
:10007000CA004608AE004708AF008030000000000C
:1000800061220000000083120000CD00C9002F088B
:10009000C800CC0002304607C800C901C90D470896
:1000A000C9074808AE004908AF00803000000000D2
:1000B00061220000000083120000C900CF002F0859
:1000C000CE00C800831200004A08CE004B08CF00C3
:1000D000FF30CA07031CCB034F084E0403199328B3
:1000E0004C08AE004D08AF008030000000004E22EA
:1000F0000000000083120000CE00480883120313A2
:100100008400831383120000491883174E0883125A
:100110000313800083120000CC0A0319CD0AC80A19
:100120000319C90A6228063083120000C6070318A3
:10013000C70A1528000000009E280800C822643065
:10014000AF0000308222B801B9013908803E803EFC
:10015000031DAC28643038020318A3288312851AC3
:1001600024290A30AD000030AE003808AF0039084D
:10017000A021BB002F08BA003808AF003908A92217
:100180000314BB1F0310031824293B08803E803E44
:10019000031DCC280A303A020318242900308A00B3
:1001A000D5303A0703188A0A8200DF28E628ED28AE
:1001B000F428FB2802290929102917291E29303083
:1001C000AE000030AF000030292124293030AE00CD
:1001D0003030AF000030292124293030AE005B30B0
:1001E000AF000030292124293030AE004F30AF005D
:1001F0000030292124293030AE006630AF000030B5
:10020000292124293030AE006D30AF000030292183
:1002100024293030AE007D30AF0000302921242960
:100220003030AE004730AF00003029212429303073
:10023000AE007F30AF000030292124293030AE00DD
:100240004F30AF0000302921B80A0319B90AA52898
:100250000800B1002F08B0002E08B200303A031D8C
:100260006629B301B4013408803E803E031D3A295B
:1002700008303302031865293108B5003008B6008C
:100280003308B31B4F29003C031955290310B51B34
:100290000314B50CB60C013E031C46295529031066
:1002A000B60DB50D013E031C50293608B700370CBA
:1002B00003185C2983120510031C6029831205149E
:1002C000D722B30A0319B40A3329E4223208313A97
:1002D000031D9F29B201B3013308803E803E031DF8
:1002E00073290830320203189E293108B6003008FD
:1002F000B4003208B21B8829003C03198E29031070
:10030000B61B0314B60CB40C013E031C7F298E29C6
:100310000310B40DB60D013E031C89293408B50045
:10032000350C0318952983120512031C9929831291
:100330000516D722B20A0319B30A6C29E422080071
:1003400083120000D1002F08D0002E08D3002D0802
:10035000D2000314D11F0310D401D40D5408031983
:10036000B9295009D5005109D600D50A0319D60A72
:10037000BF29831200005008D5005108D60083120F
:1003800000005508D0005608D1000314D31F0310F5
:10039000031CD2295209D5005309D600D50A0319E6
:1003A000D60AD829831200005208D5005308D60077
:1003B000831200005508D200AD005608D300AE00ED
:1003C0005008AF00510800000000012200000000AA
:1003D00083120000D1002F08D00054080319FB2914
:1003E0005009D4005109D200D40A0319D20A540882
:1003F000AF005208002A831200005008AF005108D5
:10040000080083120000D8002F08D7002E08DA0059
:100410002D08D900DB01DC01831200005A08803965
:10042000031D0130DD005D08031D2D2A0310D90DC9
:10043000DA0D5A085802031D1F2A590857020318DB
:10044000272A031083120000DA0CD90C2D2A8312FC
:100450000000DC0A5C08DB000C2A831200005A084A
:100460005802031D352A59085702031C3F2A8312DC
:1004700000005908D7025A08031C5A0FD80203106B
:1004800083120000DA0CD90C5B08DC00DB035C088B
:10049000031D2D2A5708AF0058080800003A031919
:1004A000552A803A03195C2A00342E0884008313ED
:1004B0002F188317000808002F088A002E088200D2
:1004C0000800003A0319692A803A0319732AAF0118
:1004D00000342E08840083132F1883170008AF0000
:1004E000840A00080800000000005C22AD00AE0F86
:1004F000AF03AF0A000000005C22AC002D08AF0083
:100500002C080800BD002F08BC00BE01BF013D083B
:100510003F02031D8D2A3C083E020318A82AFB3027
:10052000C0000430C100FF304007C200FF30C300EC
:1005300041080318410FC3074208C0004308C10027
:1005400043084204031D932ABE0A0319BF0A872ADF
:100550000800B1002F08B000B201B301F630300737
:10056000B400FF30B50031080318310FB507340867
:10057000B0003508B1000314B51F03100318C42AD6
:10058000B20A0319B30AAE2A3208AF0033080800D2
:1005900083129F0183169F010730831299008316EF
:1005A00099012030850020308312850008008312D5
:1005B00005150A30AF0000308222831205110A307F
:1005C000AF00003082220800831285140A30AF0089
:1005D0000030822283128510080001340034F53483
:0C05E00002345E34003401340034003476
:00000001FF
