:020000040000FA
:1000000000000228AC30AE000130AF0080300000AC
:10001000000055210000000083120000C3002F08DB
:10002000C200AE30C4000130C50083120000420897
:10003000C6004308C700FF30C207031CC3034708BC
:10004000460403199A2804304407C600C701C70DA7
:100050004508C7074608AE004708AF0080300000DB
:10006000000055210000000083120000C9002F0885
:10007000C8004408AE004508AF0080300000000012
:1000800055210000000083120000CB00C7002F089C
:10009000C600CA0002304407C600C701C70D4508A4
:1000A000C7074608AE004708AF00803000000000D8
:1000B00055210000000083120000C700CD002F086A
:1000C000CC00C600831200004808CC004908CD00CF
:1000D000FF30C807031CC9034D084C0403199328BB
:1000E0004A08AE004B08AF008030000000004221FB
:1000F0000000000083120000CC00460883120313A6
:100100008400831383120000471883174C0883125E
:100110000313800083120000CA0A0319CB0AC60A1F
:100120000319C70A6228063083120000C4070318A7
:10013000C50A1528000000009E2808009D21643093
:10014000AF0000307621B701B8013808803E803E0C
:10015000031DAC280A3037020318A3283708B9005A
:1001600038088312851A04290314B81F03100318D2
:1001700004293808803E803E031DC0280A3037021B
:100180000318042900308A00C930390703188A0A85
:100190008200D328D828DD28E228E728EC28F12897
:1001A000F628FB2800293F30AF0000300921042940
:1001B0003030AF000030092104295B30AF0000303F
:1001C000092104294F30AF0000300921042966308D
:1001D000AF000030092104296D30AF000030092143
:1001E00004297D30AF000030092104294730AF00D9
:1001F0000030092104297F30AF0000300921042993
:100200004F30AF0000300921B70A0319B80AA528FA
:100210000800B1002F08B000B201B3013308803EDE
:10022000803E031D15290830320203184029310889
:10023000B5003008B4003208B21B2A29003C03196B
:1002400030290310B51B0314B50CB40C013E031C7C
:10025000212930290310B40DB50D013E031C2B29B3
:100260003408B600360C0318372983120510031C16
:100270003B2983120514BA21B20A0319B30A0E29C5
:10028000D1210800003A03194929803A031950295D
:1002900000342E08840083132F18831700080800E9
:1002A0002F088A002E0882000800003A03195D29F1
:1002B000803A03196729AF0100342E0884008313A4
:1002C0002F1883170008AF00840A000808000000F8
:1002D00000005021AD00AE0FAF03AF0A00000000D8
:1002E0005021AC002D08AF002C080800BB002F08DF
:1002F000BA00BC01BD013B083D02031D81293A083B
:100300003C0203189C29FB30BE000430BF00FF30C4
:100310003E07C000FF30C1003F0803183F0FC10770
:100320004008BE004108BF0041084004031D872962
:10033000BC0A0319BD0A7B29080083129F0183169A
:100340009F010730831299008316990120308500A0
:10035000203083128500080002340034C734013491
:100360004E3400340A340034DE340134583400345E
:1003700001340034831205150A30AF0000307621B5
:10038000831205110A30AF000030762108003F3497
:1003900006345B344F3466346D347D3407347F3437
:1003A0006734831285140A30AF000030762183123F
:0E03B000851008000030AF0000300800003457
:00000001FF
