:020000040000FA
:10000000000002281430AE000130AF008030000044
:100010000000B1200000000083120000B1002F0892
:10002000B0001630B2000130B30083120000300877
:10003000B4003108B500FF30B007031CB103350828
:10004000340403199A2804303207B400B501B50D01
:100050003308B5073408AE003508AF008030000023
:100060000000B1200000000083120000B7002F083C
:10007000B6003208AE003308AF0080300000000048
:10008000B1200000000083120000B900B5002F0865
:10009000B400B80002303207B400B501B50D330822
:1000A000B5073408AE003508AF008030000000000E
:1000B000B1200000000083120000B500BB002F0833
:1000C000BA00B400831200003608BA003708BB003B
:1000D000FF30B607031CB7033B083A040319932803
:1000E0003808AE003908AF008030000000009E20C4
:1000F0000000000083120000BA00340883120313CA
:100100008400831383120000351883173A08831282
:100110000313800083120000B80A0319B90AB40A55
:100120000319B50A6228063083120000B2070318CB
:10013000B30A15280000000007290800003A031937
:10014000A528803A0319AC2800342E0884008313B4
:100150002F188317000808002F088A002E08820035
:100160000800003A0319B928803A0319C328AF01DF
:1001700000342E08840083132F1883170008AF0063
:10018000840A0008080000000000AC20AD00AE0F9B
:10019000AF03AF0A00000000AC20AC002D08AF0098
:1001A0002C080800BD002F08BC00BE01BF013D089F
:1001B0003F02031DDD283C083E020318F828FB30EF
:1001C000C0000430C100FF304007C200FF30C30050
:1001D00041080318410FC3074208C0004308C1008B
:1001E00043084204031DE328BE0A0319BF0AD728A7
:1001F000080083129F0183169F01831299018316C1
:100200009901203085002030831285000800F920F4
:1002100083120510E830AF000330D2208312851A14
:100220000E2905140E290800013400341C34013451
:0A023000443400340134003400347B
:00000001FF
